:020000040800F2
:10000000002800203D0200088D0200088D02000833
:100010008D0200088D0200088D020008000000001B
:100020000000000000000000000000008D02000839
:100030008D020008000000008D0200088D020008FB
:100040008D0200088D0200088D0200088D02000854
:100050008D0200088D0200088D0200088D02000844
:100060008D0200088D0200088D0200088D02000834
:100070008D0200088D0200088D0200088D02000824
:100080008D0200088D0200088D0200088D02000814
:100090008D0200088D0200088D0200088D02000804
:1000A0008D0200088D0200088D0200088D020008F4
:1000B0008D0200088D0200088D0200088D020008E4
:1000C0008D0200088D0200088D0200088D020008D4
:1000D0008D0200088D0200088D0200088D020008C4
:1000E0008D0200088D020008000000008D0200084B
:1000F0008D0200088D0200088D0200088D020008A4
:100100008D0200088D0200088D0200088D02000893
:100110008D0200088D0200088D0200088D02000883
:100120008D0200088D0200088D0200088D02000873
:1001300010B5054C237833B9044B13B10448AFF321
:1001400000800123237010BD00000020000000008B
:10015000D802000808B5034B1BB103490348AFF3AD
:10016000008008BD0000000004000020D802000844
:1001700080B483B000AF2A4B1B68294A43F00C03BC
:100180001360284B00221A60264B1B68254A43F057
:1001900080031360244B00221A60234B1B68224A01
:1001A00043F010031360214B00221A601F4B1B68A1
:1001B0001E4A43F4000313601D4B00221A601C4BBF
:1001C0001B681B4A43F4801313601A4B1B6803F02F
:1001D0000203002B0CD1184B1B68174A83F0020353
:1001E000136000BF134B1B6803F00203002BF9D010
:1001F000104B1B685B0B03F00103012B05D10E4B69
:100200001B680D4A83F40053136000237B6002E0F7
:100210007B6801337B607B68B3F5007FF8DBD4E754
:100220001810024000080140000C01400408014081
:10023000040C0140080801400C0C01400D488546A3
:10024000AFF300800C480D490D4A002302E0D4585A
:10025000C4500433C4188C42F9D30A4A0A4C002310
:1002600001E013600432A242FBD300F011F8FFF763
:100270007FFFFEE700280020000000200000002093
:10028000F8020008000000201C000020FEE700002B
:1002900070B500250C4E0D4CA41BA410A54209D12D
:1002A00000F01AF800250A4E0A4CA41BA410A5421F
:1002B00005D170BD56F8253098470135EEE756F860
:1002C000253098470135F2E7F0020008F0020008F7
:1002D000F0020008F4020008F8B500BFF8BC08BC42
:1002E0009E467047F8B500BFF8BC08BC9E467047F4
:0402F00055010008AC
:0402F40031010008CC
:040000050800023DB0
:00000001FF
