:020000040800F2
:10000000008001201102000861020008610200085E
:10001000610200086102000861020008000000009F
:100020000000000000000000000000006102000865
:10003000610200080000000061020008610200087F
:10004000000000006102000861020008610200086F
:1000500061020008610200086102000861020008F4
:10006000610200086102000861020008000000004F
:100070000000000000000000000000000000000080
:100080000000000000000000610200080000000005
:1000900000000000000000000000000061020008F5
:1000A00061020008610200086102000861020008A4
:1000B00061020008610200080000000061020008FF
:1000C0006102000861020008610200086102000884
:1000D00061020008000000000000000000000000B5
:1000E00061020008610200086102000800000000CF
:1000F0000000000000000000000000000000000000
:100100000000000061020008000000006102000819
:1001100000000000000000000000000000000000DF
:1001200000000000000000000000000000000000CF
:1001300000000000000000000000000000000000BF
:100140000000000000000000000000006102000844
:10015000000000000000000000000000000000009F
:1001600061020008610200080000000000000000B9
:10017000000000000000000000000000000000007F
:100180000000000061020008000000000000000004
:040190006102000800
:1001940010B5054C237833B9044B13B10448AFF3BD
:1001A40000800123237010BD000000200000000027
:1001B400AC02000808B5034B1BB103490348AFF375
:1001C400008008BD0000000004000020AC0200080C
:1001D40080B400AF0C4B9B680B4A23F0030393607D
:1001E400094B9B68084A23F0F0039360064B9B6815
:1001F400054A43F080039360034B1B6B024A43F0B0
:1002040001031363FEE700BF003802400D48854632
:10021400AFF300800C480D490D4A002302E0D45886
:10022400C4500433C4188C42F9D30A4A0A4C00233C
:1002340001E013600432A242FBD300F011F8FFF78F
:10024400C7FFFEE70080012000000020000000201E
:10025400CC020008000000201C000020FEE7000083
:1002640070B50D4E0D4CA41BA4100025A54209D158
:100274000B4E0C4C00F018F8A41BA4100025A5424A
:1002840005D170BD56F8253098470135EEE756F88C
:10029400253098470135F2E7C4020008C40200087B
:1002A400C4020008C8020008F8B500BFF8BC08BCC6
:1002B4009E467047F8B500BFF8BC08BC9E46704720
:0402C400B901000874
:0402C8009501000894
:0400000508000211DC
:00000001FF
