:020000040800F2
:1000000000280020C5030008150400081504000896
:10001000150400081504000815040008000000007D
:1000200000000000000000000000000015040008AF
:10003000150400080000000015040008150400085D
:10004000150400081504000815040008150400082C
:10005000150400081504000815040008150400081C
:10006000150400081504000815040008150400080C
:1000700015040008150400081504000815040008FC
:1000800015040008150400081504000815040008EC
:1000900015040008150400081504000815040008DC
:1000A00015040008150400081504000815040008CC
:1000B00015040008150400081504000815040008BC
:1000C00015040008150400081504000815040008AC
:1000D000150400081504000815040008150400089C
:1000E00015040008150400080000000015040008AD
:1000F000150400081504000815040008150400087C
:10010000150400081504000815040008150400086B
:10011000150400081504000815040008150400085B
:10012000150400081504000815040008150400084B
:1001300010B5054C237833B9044B13B10448AFF321
:1001400000800123237010BD00000020000000008B
:100150006004000808B5034B1BB103490348AFF323
:10016000008008BD000000000400002060040008BA
:1001700080B483B000AF78607B68802B42D0802B46
:1001800011D8082B36D0082B06D8022B2ED0042BE2
:100190002ED0012B28D047E0202B2FD0402B2FD062
:1001A000102B29D040E0B3F5006F33D0B3F5006FCA
:1001B00009D8B3F5007F29D0B3F5806F28D0B3F507
:1001C000807F21D030E0B3F5005F27D0B3F5005F2A
:1001D00003D8B3F5805F1FD026E0B3F5804F1FD062
:1001E000B3F5004F1ED01FE000231DE004231BE0E9
:1001F000082319E00C2317E0102315E0142313E063
:10020000182311E01C230FE000230DE004230BE072
:10021000082309E00C2307E0102305E0142303E082
:10022000182301E01C23FFE718460C37BD4680BCAD
:10023000704780B485B000AFF860B9601346FB71B9
:10024000FB79002B02D0012B04D007E0FB68BA68D1
:100250005A6103E0FB68BA681A6100BF00BF143737
:10026000BD4680BC704790B585B000AF78603960FE
:100270000023FB603B681B68FF2B01D87B6801E013
:100280007B680433FB603B681B681846FFF770FF10
:1002900002460F239340DA43FB681B681A40FB6851
:1002A0001A603B681B79032B4ED83B681B79022BE5
:1002B00016D0032B2DD0012B00D067E03B681B79B3
:1002C0001C463B681B681846FFF752FF0346023383
:1002D00004FA03F2FB681B681A43FB681A6055E0D6
:1002E0003B681B791C463B681B681846FFF740FFBC
:1002F0000346023304FA03F2FB681B681A43FB68E7
:100300001A607B68DA683B681B681A437B68DA60AE
:100310003CE03B681B795C1E3B681B681846FFF796
:1003200027FF0346023304FA03F2FB681B681A43F3
:10033000FB681A607B68DA683B681B68DB431A401D
:100340007B68DA6000BF21E03B681B791C1F3B68BB
:100350001B681846FFF70CFF0346023304FA03F24A
:10036000FB681B681A43FB681A603B685B791C4694
:100370003B681B681846FFF7FBFE034604FA03F2CE
:10038000FB681B681A43FB681A60FFE700BF14375D
:10039000BD4690BD80B582B000AF04233B710323FE
:1003A0007B714FF400733B603B4619460448FFF7EE
:1003B0005AFF01224FF400710148FFF73AFFFEE7B0
:1003C000000801400D488546AFF300800C480D49F8
:1003D0000D4A002302E0D458C4500433C4188C42A0
:1003E000F9D30A4A0A4C002301E013600432A24206
:1003F000FBD300F011F8FFF7CDFFFEE70028002047
:100400000000002000000020800400080000002000
:100410001C000020FEE7000070B500250C4E0D4CBE
:10042000A41BA410A54209D100F01AF800250A4E19
:100430000A4CA41BA410A54205D170BD56F8253066
:1004400098470135EEE756F8253098470135F2E731
:100450007804000878040008780400087C04000888
:10046000F8B500BFF8BC08BC9E467047F8B500BFA1
:08047000F8BC08BC9E46704771
:040478005501000822
:04047C003101000842
:04000005080003C527
:00000001FF
