:020000040800F2
:10000000002800204502000895020008950200081B
:100010009502000895020008950200080000000003
:100020000000000000000000000000009502000831
:1000300095020008000000009502000895020008E3
:100040009502000895020008950200089502000834
:100050009502000895020008950200089502000824
:100060009502000895020008950200089502000814
:100070009502000895020008950200089502000804
:1000800095020008950200089502000895020008F4
:1000900095020008950200089502000895020008E4
:1000A00095020008950200089502000895020008D4
:1000B00095020008950200089502000895020008C4
:1000C00095020008950200089502000895020008B4
:1000D00095020008950200089502000895020008A4
:1000E0009502000895020008000000009502000833
:1000F0009502000895020008950200089502000884
:100100009502000895020008950200089502000873
:100110009502000895020008950200089502000863
:100120009502000895020008950200089502000853
:1001300010B5054C237833B9044B13B10448AFF321
:1001400000800123237010BD00000020000000008B
:100150001405000808B5034B1BB103490348AFF36E
:10016000008008BD00000000040000201405000805
:1001700080B584B000AF304B9B692F4A43F0040335
:1001800093612D4B9B692C4A43F008039361012333
:100190003B7202237B603B1D1946284800F0FFF8A4
:1001A00001233B724FF400537B603B1D19462348EB
:1001B00000F0F5F804233B7201237B7202237B607D
:1001C0003B1D19461E4800F0EAF804233B72012348
:1001D0007B724FF400537B603B1D1946184800F0BA
:1001E000DEF80221154800F0B7F80346002B0BD1CA
:1001F0000221134800F0C3F800BF02210F4800F0AD
:10020000ABF80346002BF8D04FF400510B4800F038
:10021000A3F80346012B04D14FF40051084800F025
:10022000AEF80023FB6002E0FB680133FB60FB6873
:10023000B3F5007FF8DBD4E700100240000801406E
:10024000000C01400D488546AFF300800C480D4975
:100250000D4A002302E0D458C4500433C4188C4221
:10026000F9D30A4A0A4C002301E013600432A24287
:10027000FBD300F02BF9FFF77BFFFEE700280020FF
:1002800000000020000000203405000800000020CD
:100290001C000020FEE780B483B000AF78607B686C
:1002A000802B42D0802B11D8082B36D0082B06D8B3
:1002B000022B2ED0042B2ED0012B28D047E0202B50
:1002C0002FD0402B2FD0102B29D040E0B3F5006F5A
:1002D00033D0B3F5006F09D8B3F5007F29D0B3F55B
:1002E000806F28D0B3F5807F21D030E0B3F5005F78
:1002F00027D0B3F5005F03D8B3F5805F1FD026E0A9
:10030000B3F5804F1FD0B3F5004F1ED01FE0002380
:100310001DE004231BE0082319E00C2317E0102341
:1003200015E0142313E0182311E01C230FE0002331
:100330000DE004230BE0082309E00C2307E0102361
:1003400005E0142303E0182301E01C23FFE718460F
:100350000C37BD4680BC704780B483B000AF786076
:1003600039607B689A683B681340002B01D00123F9
:1003700000E0002318460C37BD4680BC704780B4AF
:1003800083B000AF786039607B68DA683B685A40B8
:100390007B68DA6000BF0C37BD4680BC704790B503
:1003A00085B000AF786039600023FB603B681B6854
:1003B000FF2B01D87B6801E07B680433FB603B685E
:1003C0001B681846FFF767FF02460F239340DA4386
:1003D000FB681B681A40FB681A603B681B79032B9B
:1003E0004ED83B681B79022B16D0032B2DD0012B46
:1003F00000D067E03B681B791C463B681B681846C9
:10040000FFF749FF0346023304FA03F2FB681B6857
:100410001A43FB681A6055E03B681B791C463B6831
:100420001B681846FFF737FF0346023304FA03F24E
:10043000FB681B681A43FB681A607B68DA683B68D4
:100440001B681A437B68DA603CE03B681B795C1EE2
:100450003B681B681846FFF71EFF0346023304FA89
:1004600003F2FB681B681A43FB681A607B68DA6852
:100470003B681B68DB431A407B68DA6000BF21E001
:100480003B681B791C1F3B681B681846FFF703FF7E
:100490000346023304FA03F2FB681B681A43FB6845
:1004A0001A603B685B791C463B681B681846FFF77F
:1004B000F2FE034604FA03F2FB681B681A43FB686A
:1004C0001A60FFE700BF1437BD4690BD70B5002528
:1004D0000C4E0D4CA41BA410A54209D100F01AF833
:1004E00000250A4E0A4CA41BA410A54205D170BDDC
:1004F00056F8253098470135EEE756F825309847ED
:100500000135F2E72C0500082C0500082C05000831
:1005100030050008F8B500BFF8BC08BC9E4670471F
:0C052000F8B500BFF8BC08BC9E46704750
:04052C00550100086D
:04053000310100088D
:0400000508000245A8
:00000001FF
